{
  "contractName": "VotingContract",
  "abi": [
    {
      "inputs": [
        {
          "internalType": "uint256",
          "name": "_durationMinutes",
          "type": "uint256"
        }
      ],
      "payable": false,
      "stateMutability": "nonpayable",
      "type": "constructor",
      "signature": "constructor"
    },
    {
      "anonymous": false,
      "inputs": [
        {
          "indexed": false,
          "internalType": "string",
          "name": "candidate",
          "type": "string"
        }
      ],
      "name": "CandidateAdded",
      "type": "event",
      "signature": "0xf29562dad1599aea0ebb142466120aab326d5efa8f839df82a9c064bf78e8938"
    },
    {
      "anonymous": false,
      "inputs": [
        {
          "indexed": false,
          "internalType": "address",
          "name": "voter",
          "type": "address"
        },
        {
          "indexed": false,
          "internalType": "string",
          "name": "otp",
          "type": "string"
        }
      ],
      "name": "OTPGenerated",
      "type": "event",
      "signature": "0x99a8b939e301c59170870a639c057cae1b60e8c098cf0b7fba35d4d46b489153"
    },
    {
      "anonymous": false,
      "inputs": [
        {
          "indexed": true,
          "internalType": "address",
          "name": "voter",
          "type": "address"
        },
        {
          "indexed": false,
          "internalType": "string",
          "name": "candidate",
          "type": "string"
        }
      ],
      "name": "Voted",
      "type": "event",
      "signature": "0xcb6783276e8a4347387036bbfea000268f0a4b1f8c46ac79980609f2af8d2acd"
    },
    {
      "anonymous": false,
      "inputs": [
        {
          "indexed": false,
          "internalType": "address",
          "name": "voter",
          "type": "address"
        }
      ],
      "name": "VoterRegistered",
      "type": "event",
      "signature": "0xb6be2187d059cc2a55fe29e0e503b566e1e0f8c8780096e185429350acffd3dd"
    },
    {
      "anonymous": false,
      "inputs": [
        {
          "indexed": false,
          "internalType": "uint256",
          "name": "endTime",
          "type": "uint256"
        }
      ],
      "name": "VotingEnded",
      "type": "event",
      "signature": "0x81eb7415440ff8e6c8e92606fd3b0e5e6a5c99ea90cdb63b41aec54e897312b3"
    },
    {
      "anonymous": false,
      "inputs": [
        {
          "indexed": false,
          "internalType": "uint256",
          "name": "startTime",
          "type": "uint256"
        },
        {
          "indexed": false,
          "internalType": "uint256",
          "name": "endTime",
          "type": "uint256"
        }
      ],
      "name": "VotingStarted",
      "type": "event",
      "signature": "0xf8c022056754dbacca05aff710dc315a2fa7699ae9309fda403cd1e55c11d40f"
    },
    {
      "anonymous": false,
      "inputs": [
        {
          "indexed": false,
          "internalType": "string",
          "name": "winner",
          "type": "string"
        },
        {
          "indexed": false,
          "internalType": "uint256",
          "name": "votes",
          "type": "uint256"
        }
      ],
      "name": "WinnerDeclared",
      "type": "event",
      "signature": "0xd6d1eeba639254bd05e36261ae299af245328ab997fd9b7823d5fff17f1b74a4"
    },
    {
      "constant": true,
      "inputs": [
        {
          "internalType": "uint256",
          "name": "",
          "type": "uint256"
        }
      ],
      "name": "candidateList",
      "outputs": [
        {
          "internalType": "string",
          "name": "",
          "type": "string"
        }
      ],
      "payable": false,
      "stateMutability": "view",
      "type": "function",
      "signature": "0xb13c744b"
    },
    {
      "constant": true,
      "inputs": [
        {
          "internalType": "string",
          "name": "",
          "type": "string"
        }
      ],
      "name": "candidates",
      "outputs": [
        {
          "internalType": "uint256",
          "name": "",
          "type": "uint256"
        }
      ],
      "payable": false,
      "stateMutability": "view",
      "type": "function",
      "signature": "0xc5539cc2"
    },
    {
      "constant": true,
      "inputs": [],
      "name": "endTime",
      "outputs": [
        {
          "internalType": "uint256",
          "name": "",
          "type": "uint256"
        }
      ],
      "payable": false,
      "stateMutability": "view",
      "type": "function",
      "signature": "0x3197cbb6"
    },
    {
      "constant": true,
      "inputs": [
        {
          "internalType": "address",
          "name": "",
          "type": "address"
        }
      ],
      "name": "hasVoted",
      "outputs": [
        {
          "internalType": "bool",
          "name": "",
          "type": "bool"
        }
      ],
      "payable": false,
      "stateMutability": "view",
      "type": "function",
      "signature": "0x09eef43e"
    },
    {
      "constant": true,
      "inputs": [
        {
          "internalType": "address",
          "name": "",
          "type": "address"
        }
      ],
      "name": "isRegisteredVoter",
      "outputs": [
        {
          "internalType": "bool",
          "name": "",
          "type": "bool"
        }
      ],
      "payable": false,
      "stateMutability": "view",
      "type": "function",
      "signature": "0xda36cffe"
    },
    {
      "constant": true,
      "inputs": [],
      "name": "owner",
      "outputs": [
        {
          "internalType": "address",
          "name": "",
          "type": "address"
        }
      ],
      "payable": false,
      "stateMutability": "view",
      "type": "function",
      "signature": "0x8da5cb5b"
    },
    {
      "constant": true,
      "inputs": [],
      "name": "startTime",
      "outputs": [
        {
          "internalType": "uint256",
          "name": "",
          "type": "uint256"
        }
      ],
      "payable": false,
      "stateMutability": "view",
      "type": "function",
      "signature": "0x78e97925"
    },
    {
      "constant": true,
      "inputs": [],
      "name": "state",
      "outputs": [
        {
          "internalType": "enum VotingContract.State",
          "name": "",
          "type": "uint8"
        }
      ],
      "payable": false,
      "stateMutability": "view",
      "type": "function",
      "signature": "0xc19d93fb"
    },
    {
      "constant": true,
      "inputs": [],
      "name": "totalVotes",
      "outputs": [
        {
          "internalType": "uint256",
          "name": "",
          "type": "uint256"
        }
      ],
      "payable": false,
      "stateMutability": "view",
      "type": "function",
      "signature": "0x0d15fd77"
    },
    {
      "constant": false,
      "inputs": [
        {
          "internalType": "string",
          "name": "candidate",
          "type": "string"
        }
      ],
      "name": "addCandidate",
      "outputs": [],
      "payable": false,
      "stateMutability": "nonpayable",
      "type": "function",
      "signature": "0x462e91ec"
    },
    {
      "constant": false,
      "inputs": [
        {
          "internalType": "uint256",
          "name": "_durationMinutes",
          "type": "uint256"
        }
      ],
      "name": "startVoting",
      "outputs": [],
      "payable": false,
      "stateMutability": "nonpayable",
      "type": "function",
      "signature": "0x3d2f5bda"
    },
    {
      "constant": false,
      "inputs": [],
      "name": "endVoting",
      "outputs": [],
      "payable": false,
      "stateMutability": "nonpayable",
      "type": "function",
      "signature": "0xc3403ddf"
    },
    {
      "constant": true,
      "inputs": [],
      "name": "declareWinner",
      "outputs": [
        {
          "internalType": "string",
          "name": "winner",
          "type": "string"
        },
        {
          "internalType": "uint256",
          "name": "votes",
          "type": "uint256"
        }
      ],
      "payable": false,
      "stateMutability": "view",
      "type": "function",
      "signature": "0x14034bd2"
    },
    {
      "constant": false,
      "inputs": [
        {
          "internalType": "address",
          "name": "voter",
          "type": "address"
        },
        {
          "internalType": "string",
          "name": "otp",
          "type": "string"
        }
      ],
      "name": "generateOTP",
      "outputs": [],
      "payable": false,
      "stateMutability": "nonpayable",
      "type": "function",
      "signature": "0xb4f39cea"
    },
    {
      "constant": true,
      "inputs": [
        {
          "internalType": "address",
          "name": "voter",
          "type": "address"
        },
        {
          "internalType": "string",
          "name": "otp",
          "type": "string"
        }
      ],
      "name": "validateOTP",
      "outputs": [
        {
          "internalType": "bool",
          "name": "",
          "type": "bool"
        }
      ],
      "payable": false,
      "stateMutability": "view",
      "type": "function",
      "signature": "0xba525123"
    },
    {
      "constant": false,
      "inputs": [
        {
          "internalType": "address",
          "name": "voter",
          "type": "address"
        },
        {
          "internalType": "string",
          "name": "email",
          "type": "string"
        }
      ],
      "name": "registerVoter",
      "outputs": [],
      "payable": false,
      "stateMutability": "nonpayable",
      "type": "function",
      "signature": "0xebbb4f84"
    },
    {
      "constant": false,
      "inputs": [
        {
          "internalType": "uint256",
          "name": "candidateIndex",
          "type": "uint256"
        }
      ],
      "name": "vote",
      "outputs": [],
      "payable": false,
      "stateMutability": "nonpayable",
      "type": "function",
      "signature": "0x0121b93f"
    },
    {
      "constant": true,
      "inputs": [],
      "name": "getAllCandidates",
      "outputs": [
        {
          "internalType": "string[]",
          "name": "",
          "type": "string[]"
        }
      ],
      "payable": false,
      "stateMutability": "view",
      "type": "function",
      "signature": "0x2e6997fe"
    },
    {
      "constant": true,
      "inputs": [
        {
          "internalType": "string",
          "name": "candidate",
          "type": "string"
        }
      ],
      "name": "getVotes",
      "outputs": [
        {
          "internalType": "uint256",
          "name": "",
          "type": "uint256"
        }
      ],
      "payable": false,
      "stateMutability": "view",
      "type": "function",
      "signature": "0x805265e5"
    },
    {
      "constant": true,
      "inputs": [],
      "name": "getVotingStatus",
      "outputs": [
        {
          "internalType": "string",
          "name": "status",
          "type": "string"
        },
        {
          "internalType": "uint256",
          "name": "remainingTime",
          "type": "uint256"
        }
      ],
      "payable": false,
      "stateMutability": "view",
      "type": "function",
      "signature": "0x581c281c"
    },
    {
      "constant": false,
      "inputs": [],
      "name": "toggleVotingStatus",
      "outputs": [],
      "payable": false,
      "stateMutability": "nonpayable",
      "type": "function",
      "signature": "0x88006e8d"
    },
    {
      "constant": true,
      "inputs": [],
      "name": "getCandidateCount",
      "outputs": [
        {
          "internalType": "uint256",
          "name": "",
          "type": "uint256"
        }
      ],
      "payable": false,
      "stateMutability": "view",
      "type": "function",
      "signature": "0x30a56347"
    },
    {
      "constant": true,
      "inputs": [
        {
          "internalType": "address",
          "name": "voter",
          "type": "address"
        }
      ],
      "name": "checkVoterRegistration",
      "outputs": [
        {
          "internalType": "bool",
          "name": "",
          "type": "bool"
        }
      ],
      "payable": false,
      "stateMutability": "view",
      "type": "function",
      "signature": "0x11f495e6"
    }
  ],
  "bytecode": "0x60806040523480156200001157600080fd5b5060405162001a6b38038062001a6b8339810160408190526200003491620000b3565b60008054600160a060020a03191633178155600b805460ff191690556001819055600281905560038190556040517ff8c022056754dbacca05aff710dc315a2fa7699ae9309fda403cd1e55c11d40f9162000091918190620000ed565b60405180910390a15062000130565b8051620000ad8162000116565b92915050565b600060208284031215620000c657600080fd5b6000620000d48484620000a0565b949350505050565b620000e78162000113565b82525050565b60408101620000fd8285620000dc565b6200010c6020830184620000dc565b9392505050565b90565b620001218162000113565b81146200012d57600080fd5b50565b61192b80620001406000396000f3fe608060405234801561001057600080fd5b506004361061016a576000357c01000000000000000000000000000000000000000000000000000000009004806378e97925116100e0578063ba52512311610099578063ba525123146102a9578063c19d93fb146102bc578063c3403ddf146102d1578063c5539cc2146102d9578063da36cffe146102ec578063ebbb4f84146102ff5761016a565b806378e979251461023e578063805265e51461024657806388006e8d146102595780638da5cb5b14610261578063b13c744b14610276578063b4f39cea146102965761016a565b80632e6997fe116101325780632e6997fe146101eb57806330a56347146102005780633197cbb6146102085780633d2f5bda14610210578063462e91ec14610223578063581c281c146102365761016a565b80630121b93f1461016f57806309eef43e146101845780630d15fd77146101ad57806311f495e6146101c257806314034bd2146101d5575b600080fd5b61018261017d366004611151565b610312565b005b6101976101923660046110a4565b610505565b6040516101a491906116a3565b60405180910390f35b6101b561051a565b6040516101a491906117b0565b6101976101d03660046110a4565b610520565b6101dd610542565b6040516101a49291906116d0565b6101f36106ba565b6040516101a49190611692565b6101b5610793565b6101b5610799565b61018261021e366004611151565b61079f565b61018261023136600461111c565b61085a565b6101dd610999565b6101b5610ad0565b6101b561025436600461111c565b610ad6565b610182610afe565b610269610c03565b6040516101a49190611664565b610289610284366004611151565b610c12565b6040516101a491906116bf565b6101826102a43660046110ca565b610cb8565b6101976102b73660046110ca565b610d4c565b6102c4610dbb565b6040516101a491906116b1565b610182610dc4565b6101b56102e736600461111c565b610e24565b6101976102fa3660046110a4565b610e41565b61018261030d3660046110ca565b610e56565b6001600b5460ff16600281111561032557fe5b1461034e5760405160e560020a62461bcd02815260040161034590611720565b60405180910390fd5b3360009081526004602052604090205460ff16156103815760405160e560020a62461bcd028152600401610345906117a0565b3360009081526005602052604090205460ff166103b35760405160e560020a62461bcd02815260040161034590611760565b60085481106103d75760405160e560020a62461bcd02815260040161034590611710565b336000908152600460205260409020805460ff1916600190811790915560038054909101905560088054606091908390811061040f57fe5b600091825260209182902001805460408051601f600260001961010060018716150201909416939093049283018590048502810185019091528181529283018282801561049d5780601f106104725761010080835404028352916020019161049d565b820191906000526020600020905b81548152906001019060200180831161048057829003601f168201915b505050505090506007816040516104b4919061164c565b9081526040519081900360200181208054600101905533907fcb6783276e8a4347387036bbfea000268f0a4b1f8c46ac79980609f2af8d2acd906104f99084906116bf565b60405180910390a25050565b60046020526000908152604090205460ff1681565b60035481565b600160a060020a03811660009081526005602052604090205460ff165b919050565b6000805460609190600160a060020a031633146105745760405160e560020a62461bcd02815260040161034590611700565b6002600b5460ff16600281111561058757fe5b146105a75760405160e560020a62461bcd028152600401610345906116f0565b60606000805b6008548110156106af576060600882815481106105c657fe5b600091825260209182902001805460408051601f60026000196101006001871615020190941693909304928301859004850281018501909152818152928301828280156106545780601f1061062957610100808354040283529160200191610654565b820191906000526020600020905b81548152906001019060200180831161063757829003601f168201915b505050505090508260078260405161066c919061164c565b90815260200160405180910390205411156106a657600781604051610691919061164c565b90815260200160405180910390205492508093505b506001016105ad565b5090925090505b9091565b60606008805480602002602001604051908101604052809291908181526020016000905b828210156107895760008481526020908190208301805460408051601f60026000196101006001871615020190941693909304928301859004850281018501909152818152928301828280156107755780601f1061074a57610100808354040283529160200191610775565b820191906000526020600020905b81548152906001019060200180831161075857829003601f168201915b5050505050815260200190600101906106de565b5050505090505b90565b60085490565b60025481565b600054600160a060020a031633146107cc5760405160e560020a62461bcd02815260040161034590611700565b6000600b5460ff1660028111156107df57fe5b146107ff5760405160e560020a62461bcd02815260040161034590611740565b600b805460ff191660019081179091554290819055603c8202810160028190556040517ff8c022056754dbacca05aff710dc315a2fa7699ae9309fda403cd1e55c11d40f9261084f9290916117be565b60405180910390a150565b600054600160a060020a031633146108875760405160e560020a62461bcd02815260040161034590611700565b6000600b5460ff16600281111561089a57fe5b146108ba5760405160e560020a62461bcd02815260040161034590611750565b6007816040516108ca919061164c565b9081526020016040518091039020546000146108fb5760405160e560020a62461bcd02815260040161034590611730565b600060078260405161090d919061164c565b9081526040516020918190038201902091909155600880546001810180835560009290925283519192610968927ff3f7a9fe364faab93b216da50a3214154f22a0a2b415b23a84c8169e8b636ee39092019190850190610fa2565b50507ff29562dad1599aea0ebb142466120aab326d5efa8f839df82a9c064bf78e89388160405161084f91906116bf565b6060600080600b5460ff1660028111156109af57fe5b14156109f257505060408051808201909152600b81527f4e6f742073746172746564000000000000000000000000000000000000000000602082015260006106b6565b6001600b5460ff166002811115610a0557fe5b1415610a93576002544211610a5657505060025460408051808201909152600781527f4f6e676f696e67000000000000000000000000000000000000000000000000006020820152904290036106b6565b505060408051808201909152601381527f566f74696e6720706572696f6420656e64656400000000000000000000000000602082015260006106b6565b505060408051808201909152600c81527f566f74696e6720456e6465640000000000000000000000000000000000000000602082015260006106b6565b60015481565b6000600782604051610ae8919061164c565b9081526020016040518091039020549050919050565b600054600160a060020a03163314610b2b5760405160e560020a62461bcd02815260040161034590611700565b6000600b5460ff166002811115610b3e57fe5b1480610b5a57506002600b5460ff166002811115610b5857fe5b145b15610bbb57600b805460ff191660019081179091554290819055610e10810160028190556040517ff8c022056754dbacca05aff710dc315a2fa7699ae9309fda403cd1e55c11d40f92610bae9290916117be565b60405180910390a1610c01565b600b805460ff191660021790556040517f81eb7415440ff8e6c8e92606fd3b0e5e6a5c99ea90cdb63b41aec54e897312b390610bf89042906117b0565b60405180910390a15b565b600054600160a060020a031681565b60088181548110610c1f57fe5b600091825260209182902001805460408051601f6002600019610100600187161502019094169390930492830185900485028101850190915281815293509091830182828015610cb05780601f10610c8557610100808354040283529160200191610cb0565b820191906000526020600020905b815481529060010190602001808311610c9357829003601f168201915b505050505081565b600054600160a060020a03163314610ce55760405160e560020a62461bcd02815260040161034590611700565b600160a060020a03821660009081526006602090815260409091208251610d0e92840190610fa2565b507f99a8b939e301c59170870a639c057cae1b60e8c098cf0b7fba35d4d46b4891538282604051610d40929190611672565b60405180910390a15050565b600081604051602001610d5f919061164c565b60408051601f198184030181528282528051602091820120600160a060020a038716600090815260068352929092209192610d9b929101611658565b604051602081830303815290604052805190602001201490505b92915050565b600b5460ff1681565b600054600160a060020a03163314610df15760405160e560020a62461bcd02815260040161034590611700565b6001600b5460ff166002811115610e0457fe5b14610bbb5760405160e560020a62461bcd02815260040161034590611790565b805160208183018101805160078252928201919093012091525481565b60056020526000908152604090205460ff1681565b600160a060020a03821660009081526005602052604090205460ff1615610e925760405160e560020a62461bcd02815260040161034590611770565b6000600160a060020a0316600982604051610ead919061164c565b90815260405190819003602001902054600160a060020a031614610ee65760405160e560020a62461bcd02815260040161034590611780565b600160a060020a03821660009081526005602052604090819020805460ff19166001179055518290600990610f1c90849061164c565b9081526040805160209281900383019020805473ffffffffffffffffffffffffffffffffffffffff1916600160a060020a039485161790559184166000908152600a8252919091208251610f7292840190610fa2565b507fb6be2187d059cc2a55fe29e0e503b566e1e0f8c8780096e185429350acffd3dd82604051610d409190611664565b828054600181600116156101000203166002900490600052602060002090601f016020900481019282601f10610fe357805160ff1916838001178555611010565b82800160010185558215611010579182015b82811115611010578251825591602001919060010190610ff5565b5061101c929150611020565b5090565b61079091905b8082111561101c5760008155600101611026565b8035610db5816118cb565b600082601f83011261105657600080fd5b813561106961106482611800565b6117d9565b9150808252602083016020830185838301111561108557600080fd5b611090838284611878565b50505092915050565b8035610db5816118df565b6000602082840312156110b657600080fd5b60006110c2848461103a565b949350505050565b600080604083850312156110dd57600080fd5b60006110e9858561103a565b925050602083013567ffffffffffffffff81111561110657600080fd5b61111285828601611045565b9150509250929050565b60006020828403121561112e57600080fd5b813567ffffffffffffffff81111561114557600080fd5b6110c284828501611045565b60006020828403121561116357600080fd5b60006110c28484611099565b600061117b8383611211565b9392505050565b61118b81611847565b82525050565b600061119c8261183a565b6111a6818561183e565b9350836020820285016111b885611828565b8060005b858110156111f257848403895281516111d5858261116f565b94506111e083611828565b60209a909a01999250506001016111bc565b5091979650505050505050565b61118b81611852565b61118b8161186d565b600061121c8261183a565b611226818561183e565b9350611236818560208601611884565b61123f816118b4565b9093019392505050565b60006112548261183a565b61125e818561053d565b935061126e818560208601611884565b9290920192915050565b60008154600181166000811461129557600181146112b8576112f7565b607f60028304166112a6818761053d565b60ff19841681529550850192506112f7565b600282046112c6818761053d565b95506112d18561182e565b60005b828110156112f0578154888201526001909101906020016112d4565b5050850192505b505092915050565b600061130c60178361183e565b7f566f74696e67206973207374696c6c206f6e676f696e67000000000000000000815260200192915050565b600061134560268361183e565b7f4f6e6c7920746865206f776e65722063616e20706572666f726d20746869732081527f616374696f6e0000000000000000000000000000000000000000000000000000602082015260400192915050565b60006113a4601d8361183e565b7f43616e64696461746520696e646578206f7574206f6620626f756e6473000000815260200192915050565b60006113dd601e8361183e565b7f566f74696e67206973206e6f742063757272656e746c79206163746976650000815260200192915050565b600061141660188361183e565b7f43616e64696461746520616c7265616479206578697374730000000000000000815260200192915050565b600061144f601a8361183e565b7f566f74696e672068617320616c72656164792073746172746564000000000000815260200192915050565b6000611488602e8361183e565b7f43616e6e6f74206164642063616e6469646174657320616674657220766f746981527f6e67206861732073746172746564000000000000000000000000000000000000602082015260400192915050565b60006114e7601e8361183e565b7f596f7520617265206e6f742061207265676973746572656420766f7465720000815260200192915050565b6000611520601c8361183e565b7f566f74657220697320616c726561647920726567697374657265642e00000000815260200192915050565b6000611559602b8361183e565b7f456d61696c20697320616c7265616479206c696e6b656420746f20616e6f746881527f6572206163636f756e742e000000000000000000000000000000000000000000602082015260400192915050565b60006115b860338361183e565b7f566f74696e67206973206e6f742063757272656e746c7920616374697665206f81527f722068617320616c726561647920656e64656400000000000000000000000000602082015260400192915050565b600061161760168361183e565b7f596f75206861766520616c726561647920766f74656400000000000000000000815260200192915050565b61118b81610790565b600061117b8284611249565b600061117b8284611278565b60208101610db58284611182565b604081016116808285611182565b81810360208301526110c28184611211565b6020808252810161117b8184611191565b60208101610db582846111ff565b60208101610db58284611208565b6020808252810161117b8184611211565b604080825281016116e18185611211565b905061117b6020830184611643565b60208082528101610db5816112ff565b60208082528101610db581611338565b60208082528101610db581611397565b60208082528101610db5816113d0565b60208082528101610db581611409565b60208082528101610db581611442565b60208082528101610db58161147b565b60208082528101610db5816114da565b60208082528101610db581611513565b60208082528101610db58161154c565b60208082528101610db5816115ab565b60208082528101610db58161160a565b60208101610db58284611643565b604081016117cc8285611643565b61117b6020830184611643565b60405181810167ffffffffffffffff811182821017156117f857600080fd5b604052919050565b600067ffffffffffffffff82111561181757600080fd5b506020601f91909101601f19160190565b60200190565b60009081526020902090565b5190565b90815260200190565b6000610db582611861565b151590565b8061053d816118be565b600160a060020a031690565b6000610db582611857565b82818337506000910152565b60005b8381101561189f578181015183820152602001611887565b838111156118ae576000848401525b50505050565b601f01601f191690565b600381106118c857fe5b50565b6118d481611847565b81146118c857600080fd5b6118d48161079056fea365627a7a7231582027f6575d5a76f712c7b8ac568642b77ea6836acf3fea1d238b62ea10cb3461d06c6578706572696d656e74616cf564736f6c63430005100040",
  "source": "// SPDX-License-Identifier: MIT\npragma solidity ^0.5.16;\npragma experimental ABIEncoderV2;\n\ncontract VotingContract {\n    address public owner;\n    uint256 public startTime;\n    uint256 public endTime;\n    uint256 public totalVotes;\n\n    mapping(address => bool) public hasVoted;\n    mapping(address => bool) public isRegisteredVoter;\n    mapping(address => string) private otpStorage;\n    mapping(string => uint256) public candidates;  // Mapping for storing votes by candidate name\n    string[] public candidateList;\n\n    mapping(string => address) private emailToAddress; // Maps email to Ethereum address\n    mapping(address => string) private addressToEmail; // Maps Ethereum address to email\n\n    enum State { NotStarted, Voting, Closed }\n    State public state;\n\n    event CandidateAdded(string candidate);\n    event VoterRegistered(address voter);\n    event OTPGenerated(address voter, string otp);\n    event Voted(address indexed voter, string candidate);\n    event VotingStarted(uint256 startTime, uint256 endTime);\n    event VotingEnded(uint256 endTime);\n    event WinnerDeclared(string winner, uint256 votes);\n\n    modifier onlyOwner() {\n        require(msg.sender == owner, \"Only the owner can perform this action\");\n        _;\n    }\n\n    modifier onlyDuringVoting() {\n        require(state == State.Voting, \"Voting is not currently active\");\n        _;\n    }\n\n    modifier onlyOnce() {\n        require(!hasVoted[msg.sender], \"You have already voted\");\n        _;\n    }\n\n    constructor(uint256 _durationMinutes) public {\n        owner = msg.sender;\n        state = State.NotStarted;\n        startTime = 0;\n        endTime = 0;\n        totalVotes = 0;\n        emit VotingStarted(startTime, endTime);\n    }\n\n    // Admin functions\n    function addCandidate(string memory candidate) public onlyOwner {\n    require(state == State.NotStarted, \"Cannot add candidates after voting has started\");\n    require(candidates[candidate] == 0, \"Candidate already exists\");\n    candidates[candidate] = 0;\n    candidateList.push(candidate);\n    emit CandidateAdded(candidate);\n}\n\n\n    function startVoting(uint256 _durationMinutes) public onlyOwner {\n        require(state == State.NotStarted, \"Voting has already started\");\n        state = State.Voting;\n        startTime = block.timestamp;\n        endTime = startTime + (_durationMinutes * 1 minutes);\n        emit VotingStarted(startTime, endTime);\n    }\n\n    function endVoting() public onlyOwner {\n        require(state == State.Voting, \"Voting is not currently active or has already ended\");\n\n        state = State.Closed; // Change state to closed\n        emit VotingEnded(block.timestamp); // Emit the event\n    }\n\n    function declareWinner() public view onlyOwner returns (string memory winner, uint256 votes) {\n        require(state == State.Closed, \"Voting is still ongoing\");\n\n        string memory topCandidate;\n        uint256 topVotes = 0;\n\n        for (uint256 i = 0; i < candidateList.length; i++) {\n            string memory candidate = candidateList[i];\n            if (candidates[candidate] > topVotes) {\n                topVotes = candidates[candidate];\n                topCandidate = candidate;\n            }\n        }\n\n        return (topCandidate, topVotes);\n    }\n\n\n    // Voter functions\n    function generateOTP(address voter, string memory otp) public onlyOwner {\n        otpStorage[voter] = otp;\n        emit OTPGenerated(voter, otp);\n    }\n\n    function validateOTP(address voter, string memory otp) public view returns (bool) {\n        return keccak256(abi.encodePacked(otpStorage[voter])) == keccak256(abi.encodePacked(otp));\n    }\n\n    function registerVoter(address voter, string memory email) public {\n        require(!isRegisteredVoter[voter], \"Voter is already registered.\"); \n        require(emailToAddress[email] == address(0), \"Email is already linked to another account.\"); \n        \n        isRegisteredVoter[voter] = true;\n        emailToAddress[email] = voter; // Link email to the Ethereum address\n        addressToEmail[voter] = email; // Link Ethereum address to the email\n\n        emit VoterRegistered(voter);\n    }\n\n\n    function vote(uint256 candidateIndex) public onlyDuringVoting onlyOnce {\n        require(isRegisteredVoter[msg.sender], \"You are not a registered voter\");\n        require(candidateIndex < candidateList.length, \"Candidate index out of bounds\");\n\n        hasVoted[msg.sender] = true;\n        totalVotes++;\n\n        string memory candidate = candidateList[candidateIndex];\n        candidates[candidate]++;\n        emit Voted(msg.sender, candidate);\n    }\n\n    // Helper functions\n    function getAllCandidates() public view returns (string[] memory) {\n        return candidateList;\n    }\n\n    function getVotes(string memory candidate) public view returns (uint256) {\n        return candidates[candidate];\n    }\n\n    function getVotingStatus() public view returns (string memory status, uint256 remainingTime) {\n        if (state == State.NotStarted) {\n            return (\"Not started\", 0);\n        } else if (state == State.Voting) {\n            if (block.timestamp <= endTime) {\n                return (\"Ongoing\", endTime - block.timestamp);\n            } else {\n                return (\"Voting period ended\", 0);\n            }\n        } else {\n            return (\"Voting Ended\", 0);\n        }\n    }\n\n    function toggleVotingStatus() public onlyOwner {\n        if (state == State.NotStarted || state == State.Closed) {\n            state = State.Voting;\n            startTime = block.timestamp;\n            endTime = startTime + (60 minutes); // Example duration\n            emit VotingStarted(startTime, endTime);\n        } else {\n            state = State.Closed;\n            emit VotingEnded(block.timestamp);\n        }\n    }\n\n    function getCandidateCount() public view returns (uint256) {\n        return candidateList.length;\n    }\n\n    function checkVoterRegistration(address voter) public view returns (bool) {\n        return isRegisteredVoter[voter];\n    }\n}",
  "sourcePath": "C:/Users/Abhay/VotingProject/contracts/VotingContract.sol",
  "compiler": {
    "name": "solc",
    "version": "0.5.16+commit.9c3226ce.Emscripten.clang"
  },
  "schemaVersion": "3.0.0",
  "updatedAt": "2025-02-06T00:50:30.439Z",
  "devdoc": {
    "methods": {}
  },
  "userdoc": {
    "methods": {}
  }
}